:100000000C9462000C948A000C948A000C948A0070
:100010000C948A000C948A000C948A000C948A0038
:100020000C948A000C948A000C948A000C948A0028
:100030000C948A000C948A000C948A000C948A0018
:100040000C94DB0A0C948A000C944B0B0C94250B3B
:100050000C948A000C948A000C948A000C948A00F8
:100060000C948A000C948A000000000024002700F1
:100070002A0000000000250028002B0000000000DE
:1000800023002600290004040404040404040202DA
:100090000202020203030303030301020408102007
:1000A0004080010204081020010204081020000012
:1000B0000008000201000003040700000000000027
:1000C00000007D0B11241FBECFEFD8E0DEBFCDBFF7
:1000D00011E0A0E0B1E0EEE0F9E202C005900D927F
:1000E000AA3BB107D9F723E0AAEBB1E001C01D920A
:1000F000A830B207E1F710E0C2E6D0E004C02197D3
:10010000FE010E947F14C136D107C9F70E94B00BCF
:100110000C9485140C940000833081F028F4813015
:1001200099F08230A9F008958730A9F08830C9F09D
:100130008430B1F4809180008F7D03C08091800075
:100140008F7780938000089584B58F7784BD08955C
:1001500084B58F7DFBCF8091B0008F778093B00006
:1001600008958091B0008F7DF9CFCF93DF93282F32
:1001700030E0F901E255FF4F8491F901E656FF4F57
:10018000D491F901EA57FF4FC491CC23A1F081111A
:100190000E948C00EC2FF0E0EE0FFF1FE458FF4FA1
:1001A000A591B491EC91ED2381E090E009F480E019
:1001B000DF91CF91089580E090E0FACF1F93CF9325
:1001C000DF93282F30E0F901E255FF4F8491F901C8
:1001D000E656FF4FD491F901EA57FF4FC491CC2363
:1001E000A9F0162F81110E948C00EC2FF0E0EE0F89
:1001F000FF1FEE58FF4FA591B4918FB7F894EC9183
:10020000111108C0D095DE23DC938FBFDF91CF9111
:100210001F910895DE2BF8CFCF93DF9390E0FC0180
:10022000E656FF4F24918A579F4FFC018491882303
:10023000D1F090E0880F991FFC01E859FF4FA5917C
:10024000B491FC01EE58FF4FC591D491623071F426
:100250009FB7F8943C91822F809583238C93E881FB
:100260002E2B28839FBFDF91CF9108958FB7F894ED
:10027000EC912E2B2C938FBFF6CF1F93CF93DF9350
:10028000182FEB0161E00E940C01209739F460E027
:10029000812FDF91CF911F910C94DE00CF3FD105CC
:1002A00011F461E0F5CFE12FF0E0E255FF4FE4916A
:1002B000E33031F140F4E130B1F0E230E1F0C03848
:1002C000D1057CF7E4CFE73029F1E83059F1E4308B
:1002D000B1F780918000806280938000D0938B0082
:1002E000C0938A0004C084B5806884BDC7BDDF9117
:1002F000CF911F91089584B5806284BDC8BDF7CFAA
:1003000080918000806880938000D0938900C093A2
:100310008800EDCF8091B00080688093B000C093DA
:10032000B300E5CF8091B00080628093B000C093AD
:10033000B400DDCF806480937C0080917A0080647B
:1003400080937A0080917A0086FDFCCF80917800BE
:100350009091790008953FB7F8948091650290914B
:100360006602A0916702B091680226B5A89B05C0FD
:100370002F3F19F00196A11DB11D3FBFBA2FA92F24
:10038000982F8827BC01CD01620F711D811D911D21
:1003900042E0660F771F881F991F4A95D1F708958D
:1003A0008F929F92AF92BF92CF92DF92EF92FF9285
:1003B0006B017C010E94AB014B015C01C114D104B3
:1003C000E104F104B9F00E94AB01681979098A09C6
:1003D0009B09683E73408105910580F321E0C21AB4
:1003E000D108E108F10888EE880E83E0981EA11C70
:1003F000B11CE4CFFF90EF90DF90CF90BF90AF9013
:100400009F908F9008952FB7F8946091610270913A
:10041000620280916302909164022FBF0895AF92AF
:10042000BF92CF92DF92EF92FF920F931F93CF93E1
:10043000DF936C017B018B01040F151FEB015E0143
:10044000AE18BF08C017D10759F06991D601ED91D8
:10045000FC910190F081E02DC6010995892B79F777
:10046000C501DF91CF911F910F91FF90EF90DF9029
:10047000CF90BF90AF900895FC01538D448D252FF0
:1004800030E0842F90E0821B930B541710F0CF962E
:10049000089501970895FC01918D828D981761F060
:1004A000A28DAE0FBF2FB11D5D968C91928D9F5F77
:1004B0009F73928F90E008958FEF9FEF0895FC0156
:1004C000918D828D981731F0828DE80FF11D858D09
:1004D00090E008958FEF9FEF0895FC01918D228D9C
:1004E000892F90E0805C9F4F821B91098F73992721
:1004F000089589E692E00E946D0221E0892B09F4BB
:1005000020E0822F089580E090E0892B29F00E945E
:10051000790281110C9400000895FC01A48DA80FAC
:10052000B92FB11DA35ABF4F2C91848D90E0019635
:100530008F739927848FA689B7892C93A089B18955
:100540008C91837080648C93938D848D981306C0F6
:100550000288F389E02D80818F7D80830895EF925A
:10056000FF920F931F93CF93DF93EC0181E0888F6D
:100570009B8D8C8D98131AC0E889F989808185FF3D
:1005800015C09FB7F894EE89FF896083E889F989DF
:1005900080818370806480839FBF81E090E0DF91E1
:1005A000CF911F910F91FF90EF900895F62E0B8D34
:1005B00010E00F5F1F4F0F731127E02E8C8D8E11EF
:1005C0000CC00FB607FCFACFE889F989808185FF56
:1005D000F5CFCE010E948D02F1CFEB8DEC0FFD2FF8
:1005E000F11DE35AFF4FF0829FB7F8940B8FEA8911
:1005F000FB8980818062CFCFCF93DF93EC01888D20
:100600008823B9F0AA89BB89E889F9898C9185FD8D
:1006100003C0808186FD0DC00FB607FCF7CF8C911B
:1006200085FFF2CF808185FFEDCFCE010E948D0244
:10063000E9CFDF91CF91089561E084E00E94DE0070
:1006400060E085E00E94DE0070E060E086E00E94ED
:100650003D0161E087E00E94DE0060E088E00E94EA
:10066000DE0070E060E089E00C943D01CF93DF9301
:1006700061E084E00E94DE0060E085E00E94DE0030
:10068000C0910603D0910703BE0186E00E943D01A0
:1006900061E087E00E94DE0060E088E00E94DE000A
:1006A000BE0189E00E943D016CE370E080E090E0D3
:1006B000DF91CF910C94D00160E084E00E94DE00D5
:1006C00061E085E00E94DE0067E370E086E00E9462
:1006D0003D0161E087E00E94DE0060E088E00E946A
:1006E000DE0067E370E089E00C943D0161E084E0A6
:1006F0000E94DE0060E085E00E94DE0070E060E0C5
:1007000086E00E943D0161E087E00E94DE0060E03B
:1007100088E00E94DE0067E370E089E00C943D0110
:1007200061E084E00E94DE0060E085E00E94DE007F
:1007300067E370E086E00E943D0161E087E00E948F
:10074000DE0060E088E00E94DE0070E060E089E0AA
:100750000C943D01609128027091290280912A0237
:1007600090912B020E94FE122091260230912702C6
:10077000260F371F309327022093260270932502FD
:1007800060932402072E000C880B990B0E943613ED
:1007900020E030E040E450E40E94EB130E94FE129F
:1007A0007093230260932202089580910603909132
:1007B000070340912202509123029C01241B350B18
:1007C0003093210220932002840F951F90931F02E3
:1007D00080931E028F3F91050CF443C08FEF90E091
:1007E00090931F0280931E022F3F31058CF08FEFF4
:1007F00090E0909321028093200280911E029091BC
:100800001F021816190624F010921F0210921E02E1
:1008100080912002909121021816190624F010925E
:1008200021021092200261E084E00E94DE0060E07C
:1008300085E00E94DE00609120027091210286E036
:100840000E943D0161E087E00E94DE0060E088E0F8
:100850000E94DE0060911E0270911F0289E00C94DC
:100860003D012F3F31051CF6C8CF4F925F926F922A
:100870007F928F929F92AF92BF92CF92DF92EF9230
:10088000FF92CF93DF93CDB7DEB72C970FB6F894D6
:10089000DEBF0FBECDBFE6E4F2E0C080D180E280D3
:1008A000F38084809580A680B78080859185A2851D
:1008B000B38589839A83AB83BC8384859585A6851C
:1008C000B7858D839E83AF83B88780899189A289FC
:1008D000B38989879A87AB87BC8720E030E040E006
:1008E00052ECC701B6010E94EB132B013C0120E042
:1008F00030E040E851ECC501B4010E94EB139B01CC
:10090000AC01C301B2010E941B122B013C0120E08B
:1009100030E0A90169817A818B819C810E94EB136F
:100920009B01AC01C301B2010E941B122B013C01CF
:1009300020E030E040E851E46D817E818F81988530
:100940000E94EB139B01AC01C301B2010E941B1278
:100950002B013C0120E030E040E052E469857A85DB
:100960008B859C850E94EB139B01AC01C301B201F6
:100970000E941B122B013C01A5019401C701B60185
:100980000E941B1229813A814B815C810E941B12BB
:100990002D813E814F8158850E941B1229853A8501
:1009A0004B855C850E941B129B01AC01C301B20107
:1009B0000E948C12609328027093290280932A026D
:1009C00090932B022C960FB6F894DEBF0FBECDBFCE
:1009D000DF91CF91FF90EF90DF90CF90BF90AF90DD
:1009E0009F908F907F906F905F904F9008952F927F
:1009F0003F924F925F926F927F928F929F92AF92AF
:100A0000BF92CF92DF92EF92FF920F931F93CF93FB
:100A1000DF9300D000D0CDB7DEB72AE332E03C83CD
:100A20002B8302E112E084E1282E81E0382EEB8155
:100A3000FC816191719181919191FC83EB83F8012B
:100A4000C190D190E190F1908F01F10141905190CE
:100A5000619071901F012B813C81245031093A83B0
:100A60002983A70196010E941A1220E030E048EC89
:100A700052E40E94EB134B015C01A7019601C301F4
:100A8000B2010E941A129B01AC01C501B4010E947F
:100A90008C12E981FA8160837183828393832B8135
:100AA0003C812654324019F60F900F900F900F9012
:100AB000DF91CF911F910F91FF90EF90DF90CF903A
:100AC000BF90AF909F908F907F906F905F904F906E
:100AD0003F902F9008952F923F924F925F926F9286
:100AE0007F928F929F92AF92BF92CF92DF92EF92BE
:100AF000FF920F931F93CF93DF9300D000D0CDB719
:100B0000DEB726E432E03C832B830EEF11E080E079
:100B1000282E81E0382EEB81FC81619171918191C9
:100B20009191FC83EB83F801C190D190E190F19019
:100B30008F01F10141905190619071901F012B81C3
:100B40003C81245031093A832983A70196010E94F0
:100B50001A1220E030E048EC52E40E94EB134B0103
:100B60005C01A7019601C301B2010E941A129B0108
:100B7000AC01C501B4010E948C12E981FA81608345
:100B80007183828393832B813C812A55324019F6ED
:100B90000F900F900F900F90DF91CF911F910F91B9
:100BA000FF90EF90DF90CF90BF90AF909F908F908D
:100BB0007F906F905F904F903F902F9008950F938C
:100BC0001F93CF930AE312E0C2E08C2F0E949A0198
:100BD000BC01990F880B990B0E943613F8016193A1
:100BE0007193819391938F01C15078F7CF911F91A9
:100BF0000F9108950F931F93CF9306E412E0C7E07F
:100C00008C2F0E949A01BC01990F880B990B0E94AE
:100C10003613F80161937193819391938F01C150C1
:100C2000C23071F7CF911F910F91089520E030E00D
:100C300040EA51E460913A0270913B0280913C029B
:100C400090913D020E94871218160CF449C081E071
:100C500090E0909337028093360220E030E040EA43
:100C600051E460913E0270913F0280914002909168
:100C700041020E9487121816C4F181E090E090931F
:100C800033028093320220E030E040EA51E4609188
:100C900042027091430280914402909145020E9469
:100CA000871218163CF181E090E090933502809312
:100CB000340220E030E04CE552E460914E02709145
:100CC0004F0280915002909151020E94E61387FDDD
:100CD00016C081E090E09093310280933002089535
:100CE0001092370210923602B8CF1092330210924F
:100CF0003202C9CF1092350210923402DACF10922C
:100D000031021092300208950E94FA050E946B058C
:100D10000E94DF050E94F7040E9435040C94160619
:100D20000E941C0364EF71E080E090E00E94D0011B
:100D30000E945C036AEF70E080E090E00E94D001C6
:100D40000E945C030E94840620E030E04CE852E4FC
:100D50006091560270915702809158029091590209
:100D60000E94E61387FDECCF0E941C0364EF71E044
:100D700080E090E00E94D0010E94AA030C94D50369
:100D80000E941C0364EF71E080E090E00E94D001BB
:100D90000E9476036AEF70E080E090E00E94D0014C
:100DA0000E9476030E94840620E030E04CE852E482
:100DB00060914E0270914F028091500290915102C9
:100DC0000E94E61387FDECCF0E941C0364EF71E0E4
:100DD00080E090E00E94D0010E94AA030C94D50309
:100DE0000E941C0364EF71E080E090E00E94D0015B
:100DF0000E9490036AEF70E080E090E00E94D001D2
:100E00000E9490030E94840620E030E04CE852E407
:100E100060914E0270914F02809150029091510268
:100E20000E94E61387FDECCF0E941C0364EF71E083
:100E300080E090E00E94D0010E94AA030C94D503A8
:100E4000FC0101900020E9F73197AF01481B590BD5
:100E5000BC0189E692E00C940F028F929F92AF92B0
:100E6000BF920F931F93CF93DF93CDB7DEB7A197B8
:100E70000FB6F894DEBF0FBECDBF19A2423008F402
:100E80004AE08E010F5D1F4F842E912CB12CA12CB6
:100E9000A50194010E945D14E62FB901CA01EA3050
:100EA000F4F4E05DD801EE938D01232B242B252B48
:100EB00079F790E080E0109719F0CD010E942007AB
:100EC000A1960FB6F894DEBF0FBECDBFDF91CF91D4
:100ED0001F910F91BF90AF909F908F900895E95C04
:100EE000E1CFCF93DF930E942007EC0186E991E0E8
:100EF0000E9420078C0F9D1FDF91CF9108958F9244
:100F00009F92AF92BF92CF92DF92EF92FF920F9398
:100F10001F93CF930E9403020091FA011091FB01ED
:100F20002091FC013091FD01601B710B820B930B32
:100F3000643671058105910508F419C28AE00E94A2
:100F4000B500892B09F0C1C189E991E00E947107C0
:100F50000E941C0368EE73E080E090E00E94D001E4
:100F600080915E0290915F02019731F482E090E0FF
:100F700090935F0280935E0280915E0290915F0287
:100F8000892B09F098C11092E6011092E7011092A6
:100F9000E8011092E9011092EA011092EB0110921F
:100FA000EC011092ED011092EE011092EF011092FF
:100FB000F0011092F1011092F2011092F3011092DF
:100FC000F4011092F5011092F6011092F7011092BF
:100FD000F8011092F9011092DA011092DB011092DF
:100FE000DC011092DD011092DE011092DF011092FF
:100FF000E0011092E1011092E2011092E3011092DF
:10100000E4011092E50180E090E0A0E8B4E4809370
:10101000C6019093C701A093C801B093C901809302
:10102000CA019093CB01A093CC01B093CD018093E2
:10103000CE019093CF01A093D001B093D1018093C2
:10104000D2019093D301A093D401B093D5018093A2
:10105000D6019093D701A093D801B093D901809382
:10106000BA019093BB01A093BC01B093BD018093E2
:10107000BE019093BF01A093C001B093C1018093C2
:10108000C2019093C301A093C401B093C50160E075
:1010900084E00E94DE0061E085E00E94DE0062E301
:1010A00070E086E00E943D0161E087E00E94DE0082
:1010B00060E088E00E94DE0062E370E089E00E9468
:1010C0003D0101EB14E0C6EEEC2EC1E0FC2E86ECF7
:1010D000C82E81E0D82EC7E08C2F0E949A01BC0157
:1010E000990F880B990B0E9436134B015C01D701B5
:1010F0002D913D914D915D917D010E94E613181651
:1011000034F4F701349780829182A282B382F6018F
:1011100021913191419151916F01C501B4010E941A
:10112000871287FF06C0F601349780829182A282DF
:10113000B382C150C23081F6AAEDEA2EA1E0FA2EA8
:10114000BAEBCB2EB1E0DB2E8C2F0E949A01BC01B2
:10115000990F880B990B0E9436134B015C01D70144
:101160002D913D914D915D917D010E94E6131816E0
:1011700034F4F701349780829182A282B382F6011F
:1011800021913191419151916F01C501B4010E94AA
:10119000871287FF06C0F601349780829182A2826F
:1011A000B382C15088F60150110909F08CCF0E941A
:1011B0001C0390E080E0BC01660F771F660F771F6D
:1011C00050E040E085309105A4F190E080E0BC0162
:1011D000660F771F660F771F50E040E0853091055E
:1011E000ECF130E020E0C901880F991F880F991FAA
:1011F000233031050CF447C030E020E0C901880FEE
:10120000991F880F991F233031050CF04EC0FC0147
:10121000EE5EFD4FDC01A654BE4F4D915D916D9188
:101220007C9140835183628373832F5F3F4F049689
:10123000EACF9B01240F351FF901E050FF4F2A51DF
:101240003E4FD9010D911D912D913C910083118349
:101250002283338301964C5F5F4FB4CF9B01240FF1
:10126000351FF901E250FE4F2A533E4FD9010D912F
:101270001D912D913C91008311832283338301962C
:101280004C5F5F4FABCFFC01EC5EFE4FDC01A65222
:10129000BE4F4D915D916D917C91408351836283EE
:1012A00073832F5F3F4F0496A3CF81E090E090932C
:1012B0005F0280935E020E9403026093FA017093C2
:1012C000FB018093FC019093FD018BE00E94B5002F
:1012D000892B21F58EE991E00E9471070E941C0381
:1012E00068EE73E080E090E00E94D00181E090E041
:1012F00020912E0230912F02232B11F090E080E0FC
:1013000090932F0280932E020E9403026093FA01B1
:101310007093FB018093FC019093FD018CE00E948F
:10132000B500892B21F582EA91E00E9471070E94A5
:101330001C0368EE73E080E090E00E94D00181E041
:1013400090E0909339028093380210922D0210920F
:101350002C0260E08DE00E94DE000E940302609398
:10136000FA017093FB018093FC019093FD01CF91F2
:101370001F910F91FF90EF90DF90CF90BF90AF90B3
:101380009F908F90089564E670E080E090E00E9466
:10139000D00180913602909137020197D9F4809163
:1013A0003202909133020197A9F480913402909116
:1013B0003502019779F40E941C03809138029091C4
:1013C0003902892B19F40E947F07F7CF60E08DE086
:1013D0000C94DE000E94F00680912C0290912D0268
:1013E000FC01E05EFE4F2CE42083019690932D02D9
:1013F00080932C02089589EA91E00C9420074F9283
:101400005F926F927F928F929F92AF92BF92CF9294
:10141000DF92EF92FF920F931F93CF936B017C01AA
:10142000742EAC019B010E945814882399F08EEA17
:1014300091E0CF911F910F91FF90EF90DF90CF90AF
:10144000BF90AF909F908F907F906F905F904F90E4
:101450000C94200746015701E894B7F82FEF3FEFAF
:101460004FE75FE7C501B4010E94581481110DC018
:101470002FEF3FEF4FE75FE7C501B4010E948712EE
:1014800018161CF482EB91E0D4CF2FEF3FEF4FE71B
:101490005FE4C701B6010E94E61318161CF486EB40
:1014A00091E0C7CF2FEF3FEF4FE75FECC701B601E9
:1014B0000E94871287FDF3CF20E030E0A901C70129
:1014C000B6010E94871210E000E087FF0AC06DE2BB
:1014D00089E692E00E94AF028C01F7FAF094F7F8E7
:1014E000F094C0E060E070E080E09FE37C1641F0A3
:1014F00020E030E040E251E40E948C12CF5FF6CF52
:10150000A70196010E941B122B013C010E940513AA
:101510004B015C014AE00E942D077C01E00EF11EA8
:10152000CC23C1F1C501B4010E9434139B01AC016D
:10153000C301B2010E941A124B015C016EE289E6FE
:1015400092E00E94AF02E80EF91EC15018F120E0AF
:1015500030E040E251E4C501B4010E94EB132B01DD
:101560003C010E9405134B01B12CA12C4AE0C5019E
:10157000B4010E942D07E80EF91EC501B4010E94B6
:1015800034139B01AC01C301B2010E941A124B013A
:101590005C01DBCFC701CF911F910F91FF90EF90BE
:1015A000DF90CF90BF90AF909F908F907F906F9083
:1015B0005F904F9008951F920F920FB60F921124D3
:1015C0002F933F938F939F93AF93BF93809161022B
:1015D00090916202A0916302B09164023091600226
:1015E00023E0230F2D3758F50196A11DB11D20933F
:1015F00060028093610290936202A0936302B093B1
:1016000064028091650290916602A0916702B09198
:1016100068020196A11DB11D809365029093660238
:10162000A0936702B0936802BF91AF919F918F9191
:101630003F912F910F900FBE0F901F90189526E8A5
:10164000230F0296A11DB11DD2CF1F920F920FB68C
:101650000F9211242F933F934F935F936F937F9338
:101660008F939F93AF93BF93EF93FF9389E692E09D
:101670000E948D02FF91EF91BF91AF919F918F9149
:101680007F916F915F914F913F912F910F900FBE7E
:101690000F901F9018951F920F920FB60F92112462
:1016A0002F938F939F93EF93FF93E0917902F091A3
:1016B0007A028081E0917F02F091800282FD1BC05E
:1016C0009081809182028F5F8F73209183028217B5
:1016D00041F0E0918202F0E0E759FD4F958F809351
:1016E0008202FF91EF919F918F912F910F900FBEEA
:1016F0000F901F9018958081F4CFE9E6F2E01382F5
:10170000128288EE93E0A0E0B0E084839583A68304
:10171000B78388E891E09183808385EC90E095879A
:10172000848784EC90E09787868780EC90E0918BAB
:10173000808B81EC90E0938B828B82EC90E0958B98
:10174000848B86EC90E0978B868B118E128E138E95
:10175000148E84E390E0909307038093060308952A
:10176000789484B5826084BD84B5816084BD85B57C
:10177000826085BD85B5816085BD80916E00816088
:1017800080936E001092810080918100826080932E
:101790008100809181008160809381008091800030
:1017A0008160809380008091B10084608093B1005B
:1017B0008091B00081608093B00080917A00846055
:1017C00080937A0080917A00826080937A00809181
:1017D0007A00816080937A0080917A00806880939B
:1017E0007A001092C100E0917902F0917A0282E0D1
:1017F0008083E0917502F09176021082E091770289
:10180000F09178028FEC808310928102E0917D024A
:10181000F0917E0286E08083E0917B02F0917C0271
:10182000808180618083E0917B02F0917C028081E5
:1018300088608083E0917B02F0917C0280818068E7
:101840008083E0917B02F0917C0280818F7D808398
:1018500062E08AE00E940C0162E08BE00E940C01D1
:1018600062E08CE00E940C0161E084E00E940C01C7
:1018700061E085E00E940C0161E086E00E940C01BD
:1018800061E087E00E940C0161E088E00E940C01A9
:1018900061E089E00E940C0161E08DE00E940C0192
:1018A00003E59CE4F92E20E0822E20E0922E12E542
:1018B00082E4E82E0E947F070E94FA050E946B05D1
:1018C0000E94DF050E94F7040E9435040E9416065C
:1018D000609128027091290280912A0290912B0236
:1018E0000E94FE12C0902602D0902702C60ED71E7C
:1018F000D0922702C0922602209124023091250224
:101900005B01A21AB30A7093250260932402072E8A
:10191000000C880B990B0E94361320E030E040E465
:1019200050E40E94EB132B013C01B601DD0C880B47
:10193000990B0E94361320E030E0A9010E94EB13BE
:101940009B01AC01C301B2010E941B122B013C019F
:10195000B501BB0C880B990B0E94361320E030E0D8
:10196000A9010E94EB139B01AC01C301B2010E94CB
:101970001B120E94FE127093230260932202809138
:101980005E0290915F02029709F0B9C40E94D503EC
:10199000C0903802D0903902C114D10409F0D6C3E6
:1019A00020E030E048E452E4609146027091470242
:1019B00080914802909149020E94871218160CF4F7
:1019C00045C020E030E048E452E460914A02709162
:1019D0004B0280914C0290914D020E948712181682
:1019E000ACF120E030E048E452E460914E027091A6
:1019F0004F0280915002909151020E948712181656
:101A00002CF120E030E048E452E460915202709101
:101A1000530280915402909155020E948712181629
:101A2000ACF0AA24A394B12C20E030E048E452E4C6
:101A3000609156027091570280915802909159021C
:101A40000E94871218160CF4A12C6501A090360292
:101A5000B090370281E0A816B10401F18091340200
:101A60009091350281309105C9F0A114B10409F0BB
:101A700046C42091320230913302232B09F03FC437
:101A80002091300230913102232B09F038C4892B88
:101A900009F035C4CA94CD2809F031C46CE370E074
:101AA00080E090E00E94D00180912E0290912F0260
:101AB000892B09F073C1AB28F9F48091320290911F
:101AC0003302892BC9F48091340290913502892B1D
:101AD00099F40E94900680912C0290912D02FC01B5
:101AE000E05EFE4FE082019690932D0280932C02DF
:101AF00060E08DE00E94DE00809136029091370216
:101B0000892BF9F48091320290913302892BC9F428
:101B10008091340290913502019799F40E94C00699
:101B200080912C0290912D02FC01E05EFE4F10830B
:101B3000019690932D0280932C0260E08DE00E942C
:101B4000DE008091360290913702009709F006C1BD
:101B50008091320290913302019791F58091340285
:101B600090913502892B99F40E94360380912C02C2
:101B700090912D02FC01E05EFE4F00830196909350
:101B80002D0280932C0260E08DE00E94DE008091A7
:101B9000340290913502019799F40E9436038091A6
:101BA0002C0290912D02FC01E05EFE4F0083019615
:101BB00090932D0280932C0260E08DE00E94DE0065
:101BC00080913602909137020197F9F480913202A8
:101BD00090913302892BC9F480913402909135029F
:101BE000019799F40E94F00680912C0290912D02A9
:101BF000FC01E05EFE4FF082019690932D028093EF
:101C00002C0260E08DE00E94DE008091360290910F
:101C100037020197F9F480913202909133020197D3
:101C2000C9F48091340290913502892B99F40E9475
:101C3000F00680912C0290912D02FC01E05EFE4F97
:101C4000F082019690932D0280932C0260E08DE04B
:101C50000E94DE008091360290913702019791F444
:101C60008091320290913302019761F480913402A5
:101C700090913502019731F461E08DE00E94DE0021
:101C80000E94C30980912C0290912D02E0E2F1E0C4
:101C9000AF01405251409C012B5F3F4F2417350745
:101CA0000CF478C02191223499F7DF0112973C910E
:101CB0003C3429F43081323511F42C9302972C9165
:101CC0002C3461F49F0121503109E901288122342B
:101CD00029F42081233511F41C9302972C9122358D
:101CE00061F49F0121503109E9012881223429F44E
:101CF00030813C3411F42C9302972C91233561F4FC
:101D00009F0121503109E9012881223429F42081E1
:101D10002C3411F41C9302972C91233561F49F010C
:101D200021503109E9012881223429F430813335E9
:101D300011F42C9302972C912C3409F0A9CF9F0118
:101D400021503109E9012881223409F0A1CF2081F5
:101D50002C3409F09DCF0C9302979ACF019709F08C
:101D60002FCF8091320290913302892B09F02ECF30
:101D70008091340290913502892B09F027CF0E947F
:101D8000F00680912C0290912D02FC01E05EFE4F46
:101D9000F0820DCF90932D0280932C0280912E0221
:101DA00090912F02019709F0D1C180913602909154
:101DB0003702892B29F58091320290913302892BC9
:101DC000F9F48091340290913502892BC9F4C090C6
:101DD0002C02D0902D0261E08DE00E94DE000E9476
:101DE0009006F601E05EFE4FE082DFEFCD1ADD0ADD
:101DF000D0922D02C0922C0260E08DE00E94DE00A5
:101E00008091360290913702892B29F58091320218
:101E100090913302892BF9F480913402909135022C
:101E20000197C9F4C0902C02D0902D0261E08DE0A2
:101E30000E94DE000E94C006F601E05EFE4F1083A5
:101E40008FEFC81AD80AD0922D02C0922C0260E0FF
:101E50008DE00E94DE008091360290913702892B3E
:101E600009F044C080913202909133020197F1F55C
:101E70008091340290913502892BC9F4C0902C02D4
:101E8000D0902D0261E08DE00E94DE000E943603BA
:101E9000F601E05EFE4F0083CFEFCC1ADC0AD09251
:101EA0002D02C0922C0260E08DE00E94DE00809145
:101EB0003402909135020197C9F4C0902C02D09061
:101EC0002D0261E08DE00E94DE000E94C006F60156
:101ED000E05EFE4F1083DFEFCD1ADD0AD0922D02B7
:101EE000C0922C0260E08DE00E94DE0080913602FC
:101EF00090913702019729F5809132029091330237
:101F0000892BF9F48091340290913502892BC9F420
:101F1000C0902C02D0902D0261E08DE00E94DE0086
:101F20000E94F006F601E05EFE4FF0828FEFC81AC5
:101F3000D80AD0922D02C0922C0260E08DE00E945F
:101F4000DE008091360290913702019729F5809149
:101F5000320290913302892BF9F4809134029091EE
:101F600035020197C9F4C0902C02D0902D0261E097
:101F70008DE00E94DE000E94C006F601E05EFE4F8A
:101F80001083CFEFCC1ADC0AD0922D02C0922C0223
:101F900060E08DE00E94DE00809136029091370271
:101FA000019709F053C0809132029091330201975A
:101FB00009F04CC08091340290913502892BC9F40C
:101FC000C0902C02D0902D0261E08DE00E94DE00D6
:101FD0000E943603F601E05EFE4F0083DFEFCD1A6C
:101FE000DD0AD0922D02C0922C0260E08DE00E94AA
:101FF000DE008091340290913502019739F561E05D
:102000008DE00E94DE0064E670E080E090E00E94D7
:10201000D0010E94160680913602909137020197F6
:1020200009F080C08091320290913302019709F04B
:1020300079C08091340290913502019709F072C005
:1020400060E177E280E090E00E94D00180912C0274
:1020500090912D02E0E2F1E0AC014B5F5F4F9F01F8
:1020600020523140421753070CF46CC021912234A6
:1020700099F7DF0112973C91323529F430813C34D5
:1020800011F42C9302972C91223561F49F01215079
:102090003109E9012881223429F42081233511F402
:1020A000FC9202972C912C3461F49F01215031094C
:1020B000E9012881223429F43081323511F42C933E
:1020C00002972C91233561F49F0121503109E901D8
:1020D0002881223429F42081223511F4FC920297C0
:1020E0002C91233561F49F0121503109E9012881A8
:1020F000223429F43081333511F42C9302972C913A
:10210000223509F0A9CF9F0121503109E901288129
:10211000223409F0A1CF2081223509F09DCF0C9304
:1021200002979ACF0E94C00680912C0290912D02B6
:10213000FC01E05EFE4F1083019690932D02809388
:102140002C0284CF90932D0280932C028091380230
:1021500090913902019709F0D2C020E030E048E4C4
:1021600052E460914602709147028091480290913A
:1021700049020E94871218160CF459C120E030E081
:1021800048E452E460914A0270914B0280914C0203
:1021900090914D020E94871218160CF448C120E05D
:1021A00030E048E452E460914E0270914F02809119
:1021B0005002909151020E94871218160CF437C1F8
:1021C00020E030E048E452E4609152027091530202
:1021D00080915402909155020E94871218160CF4B7
:1021E00026C1CC24C394D12C20E030E048E452E452
:1021F0006091560270915702809158029091590255
:102200000E94871218160CF4C12CC60140913602A8
:102210005091370241305105F1F020913402309154
:10222000350221303105B9F0452B09F068C04091E5
:10223000320250913302452B09F061C040913002C7
:1022400050913102452B09F05AC0232B09F057C099
:10225000019709F054C06CE370E080E090E00E94C8
:10226000D001C0902C02D0902D02F601E05EFE4F0E
:1022700080818C3449F40E94F006DFEFCD1ADD0A2C
:10228000D0922D02C0922C02C0902C02D0902D0230
:10229000F601E05EFE4F8081823549F40E94C0065F
:1022A0008FEFC81AD80AD0922D02C0922C02C0908B
:1022B0002C02D0902D02F601E05EFE4F8081833526
:1022C00049F40E943603CFEFCC1ADC0AD0922D02DB
:1022D000C0922C02C0902C02D0902D02F601E05E3C
:1022E000FE4F8081823449F40E949006DFEFCD1AC0
:1022F000DD0AD0922D02C0922C020E94C3090E94D6
:10230000030240905A0250905B0260905C02709011
:102310005D026419750986099709683C7105810594
:10232000910508F478C00E94030260935A027093EA
:102330005B0280935C0290935D0260914602709113
:102340004702809148029091490242E00E94FF09B1
:102350000E94FB0960914A0270914B0280914C02ED
:1023600090914D0242E00E94FF090E94FB0960919A
:102370004E0270914F02809150029091510242E0C2
:102380000E94FF090E94FB09609152027091530262
:10239000809154029091550242E00E94FF090E94F0
:1023A000FB096091560270915702809158029091FA
:1023B000590242E00E94FF090E94FB090E94FB09AA
:1023C0000E94FB0960913A0270913B0280913C02AD
:1023D00090913D0242E00E94FF090E94FB0960913A
:1023E0003E0270913F02809140029091410242E092
:1023F0000E94FF090E94FB09609142027091430212
:10240000809144029091450242E00E94FF0986E9D2
:1024100091E00E9420078114910409F44BCA0E94A4
:102420007902882309F444CA0E94000040CA90E05F
:1024300080E0ECCE5058BB27AA270E9432120C94A1
:10244000AC130E949E1338F00E94A51320F039F4BB
:102450009F3F19F426F40C949B130EF4E095E7FBD0
:102460000C949513E92F0E94BD1358F3BA17620715
:1024700073078407950720F079F4A6F50C94DF1311
:102480000EF4E0950B2EBA2FA02D0B01B90190018F
:102490000C01CA01A0011124FF27591B99F0593FD3
:1024A00050F4503E68F11A16F040A22F232F342F1B
:1024B0004427585FF3CF469537952795A795F04069
:1024C0005395C9F77EF41F16BA0B620B730B840B7E
:1024D000BAF09150A1F0FF0FBB1F661F771F881F36
:1024E000C2F70EC0BA0F621F731F841F48F487958E
:1024F00077956795B795F7959E3F08F0B0CF939580
:10250000880F08F09927EE0F9795879508950E94F8
:10251000711308F481E008950E94A0120C94AC138A
:102520000E94A51358F00E949E1340F029F45F3FCB
:1025300029F00C94951351110C94E0130C949B13F7
:102540000E94BD1368F39923B1F3552391F3951BB2
:10255000550BBB27AA2762177307840738F09F5FC4
:102560005F4F220F331F441FAA1FA9F335D00E2E31
:102570003AF0E0E832D091505040E695001CCAF79E
:102580002BD0FE2F29D0660F771F881FBB1F261761
:1025900037074807AB07B0E809F0BB0B802DBF0138
:1025A000FF2793585F4F3AF09E3F510578F00C9407
:1025B00095130C94E0135F3FE4F3983ED4F38695B3
:1025C00077956795B795F7959F5FC9F7880F911D28
:1025D0009695879597F90895E1E0660F771F881F14
:1025E000BB1F621773078407BA0720F0621B730BC7
:1025F000840BBA0BEE1F88F7E09508950E9405132F
:102600006894B1110C94E01308950E94C51388F0EA
:102610009F5798F0B92F9927B751B0F0E1F0660FA6
:10262000771F881F991F1AF0BA95C9F714C0B130E7
:1026300091F00E94DF13B1E008950C94DF13672F2F
:10264000782F8827B85F39F0B93FCCF38695779516
:102650006795B395D9F73EF49095809570956195FF
:102660007F4F8F4F9F4F0895E89409C097FB3EF42A
:1026700090958095709561957F4F8F4F9F4F9923CF
:10268000A9F0F92F96E9BB279395F695879577954D
:102690006795B795F111F8CFFAF4BB0F11F460FF0D
:1026A0001BC06F5F7F4F8F4F9F4F16C0882311F065
:1026B00096E911C0772321F09EE8872F762F05C079
:1026C000662371F096E8862F70E060E02AF09A9514
:1026D000660F771F881FDAF7880F9695879597F909
:1026E0000895990F0008550FAA0BE0E8FEEF1616A3
:1026F0001706E807F907C0F012161306E407F507F6
:1027000098F0621B730B840B950B39F40A2661F069
:10271000232B242B252B21F408950A2609F4A1400C
:10272000A6958FEF811D811D089597F99F6780E819
:1027300070E060E008959FEF80EC089500240A9413
:102740001616170618060906089500240A9412168C
:102750001306140605060895092E0394000C11F4BF
:10276000882352F0BB0F40F4BF2B11F460FF04C06C
:102770006F5F7F4F8F4F9F4F089557FD9058440FC5
:10278000551F59F05F3F71F04795880F97FB991FD0
:1027900061F09F3F79F0879508951216130614068D
:1027A000551FF2CF4695F1DF08C01616170618061A
:1027B000991FF1CF86957105610508940895E894F5
:1027C000BB2766277727CB0197F908950E947113DD
:1027D00008F48FEF08950E94FE130C94AC130E942E
:1027E0009E1338F00E94A51320F0952311F00C944D
:1027F00095130C949B1311240C94E0130E94BD13A9
:1028000070F3959FC1F3950F50E0551F629FF00143
:10281000729FBB27F00DB11D639FAA27F00DB11D5C
:10282000AA1F649F6627B00DA11D661F829F2227E5
:10283000B00DA11D621F739FB00DA11D621F839F6C
:10284000A00D611D221F749F3327A00D611D231F42
:10285000849F600D211D822F762F6A2F11249F5790
:1028600050409AF0F1F088234AF0EE0FFF1FBB1F93
:10287000661F771F881F91505040A9F79E3F510552
:1028800080F00C9495130C94E0135F3FE4F3983EB2
:10289000D4F3869577956795B795F795E7959F5FFC
:1028A000C1F7FE2B880F911D9695879597F908958E
:1028B0000E947113880B990B0895A1E21A2EAA1B8E
:1028C000BB1BFD010DC0AA1FBB1FEE1FFF1FA217E0
:1028D000B307E407F50720F0A21BB30BE40BF50BDD
:1028E000661F771F881F991F1A9469F76095709566
:1028F000809590959B01AC01BD01CF010895EE0F2D
:0E290000FF1F0590F491E02D0994F894FFCF8D
:10290E0000008044000080440000804400008044A9
:10291E000000804400008044000080440000804499
:10292E004E4E4E4E4E4E4E4E4E4E4E4E4E4E4E4EB9
:10293E004E4E4E4E4E4E4E4E4E4E4E4E4E4E000045
:10294E000000000000000000000000000000000079
:10295E000000000000000000000000000000000069
:10296E000000000000000000000000000000000059
:10297E000000000000000000000000000000000049
:10298E000000000000000000AF020F023C02FC023B
:10299E006D024B025F020D0A00626C756500726576
:1029AE00640079656C6C6F770020202020006E61CA
:0A29BE006E00696E66006F76660019
:00000001FF
